:100000000C9434000C9449000C9449000C94490061
:100010000C9449000C9449000C9449000C9449003C
:100020000C9449000C9449000C9449000C9449002C
:100030000C9449000C9449000C9449000C9449001C
:100040000C9449000C9449000C9449000C9449000C
:100050000C9449000C9449000C9449000C944900FC
:100060000C9449000C94490011241FBECFEFD8E036
:10007000DEBFCDBF11E0A0E0B1E0ECE8F2E002C0ED
:1000800005900D92A630B107D9F70E94E8000C94B4
:1000900044010C9400000F931F93CF93DF9300D083
:1000A00000D000D0CDB7DEB749835A836B837C8301
:1000B0008D839E83E981FA8181E090E0AC0101C0EB
:1000C000440F2A95EAF7242F80810130110569F445
:1000D000842B80830F900F900F900F900F900F90B4
:1000E000DF91CF911F910F910895209528232083B0
:1000F000F1CF0F931F93CF93DF9300D000D000D0A8
:10010000CDB7DEB749835A836B837C838D839E830F
:10011000EB81FC8181E090E0AC0101C0440F2A95A5
:10012000EAF7242F80810130110569F4842B808344
:100130000F900F900F900F900F900F90DF91CF9135
:100140001F910F910895209528232083F1CFCF93FD
:10015000DF9300D000D000D0CDB7DEB749835A83FB
:100160006B837C838D839E83EB81FC81808141E066
:1001700001C0440F2A95EAF7842780830F900F90DF
:100180000F900F900F900F90DF91CF910895CF9324
:10019000DF9300D000D000D0CDB7DEB749835A83BB
:1001A0006B837C838D839E83ED81FE81808190E0D3
:1001B00002C0959587952A95E2F7817090E00F909F
:1001C0000F900F900F900F900F90DF91CF910895A7
:1001D000CDB7DEB768970FB6F894DEBF0FBECDBFC0
:1001E00086E0E0E0F1E0DE01539601900D928A9501
:1001F000E1F701E010E020E04B895C896D897E89A0
:100200008F89988D0E944B0086E0E0E0F1E0DE01EE
:100210001D9601900D928A95E1F723E04D855E854C
:100220006F85788989899A890E944B0086E0E0E091
:10023000F1E0DE01179601900D928A95E1F720E03A
:100240004F81588569857A858B859C850E94A7009A
:1002500086E0E0E0F1E0DE01119601900D928A95D2
:10026000E1F723E049815A816B817C818D819E81F8
:100270000E94A7002FEF83ED90E321508040904033
:0C028000E1F700C00000D2CFF894FFCFDF
:06028C0024002500230000
:00000001FF
